S01100004F6E6C696E652D31332E737265631D
S11300000C942A000C9409050C9432050C945C059C
S11300100C9447000C9447000C9400060C94AE0515
S11300200C94D7050C9485050C9447000C94470058
S11300300C9447000C9447000C9447000C94470020
S11300400C9447000C9447000C9447000C94470010
S11300500C94470011241FBECFE5D8E0DEBFCDBF0E
S113006010E0A0E6B0E0E8EDFCE002C005900D92DF
S1130070A43EB107D9F720E0A4EEB0E001C01D9280
S1130080A23FB207E1F70E942C020C946A060C947A
S11300900000CF93CCE061E08C2F0E948F03CF5FF0
S11300A0C031C9F7CF910895DF92EF92FF920F9379
S11300B01F93CF93DF9390E6E92E90E0F92ECCE0E6
S11300C0D4E560E08C2F0E948F0300E010E08AE109
S11300D0D82ED00E8D2D0E940E04811115C0F7016B
S11300E0E00FF11FD0818FE19EE40197F1F700C08A
S11300F000008D2D0E940E048823D9F38FE19EE425
S11301000197F1F700C000000F5F1F4F0430110585
S1130110F1F661E08C2F0E948F03CF5F94E0E90E2B
S1130120F11CC03171F68D2FDF91CF911F910F918A
S1130130FF90EF90DF900895CF93C82F60E088E19F
S11301400E948F036C2F661F6627661F87E10E943B
S11301508F03C6FB662760F986E10E948F03C5FB07
S1130160662760F985E10E948F03C4FB662760F966
S113017084E10E948F0361E089E10E948F038FEC88
S113018097E00197F1F700C0000060E089E10E9468
S11301908F038FEC97E00197F1F700C00000C3FBD9
S11301A0662760F987E10E948F03C2FB662760F926
S11301B086E10E948F03C1FB662760F985E10E94F6
S11301C08F036C2F617084E10E948F0361E089E1E9
S11301D00E948F038FEC97E00197F1F700C00000B5
S11301E060E089E10E948F038FEC97E00197F1F7BB
S11301F000C00000CF910895CF93C82F61E088E13B
S11302000E948F036C2F661F6627661F87E10E947A
S11302108F03C6FB662760F986E10E948F03C5FB46
S1130220662760F985E10E948F03C4FB662760F9A5
S113023084E10E948F0361E089E10E948F038FECC7
S113024097E00197F1F700C0000060E089E10E94A7
S11302508F038FEC97E00197F1F700C00000C3FB18
S1130260662760F987E10E948F03C2FB662760F965
S113027086E10E948F03C1FB662760F985E10E9435
S11302808F036C2F617084E10E948F0361E089E128
S11302900E948F038FEC97E00197F1F700C00000F4
S11302A060E089E10E948F038FEC97E00197F1F7FA
S11302B000C00000CF9108952FE788E391E021501A
S11302C080409040E1F700C0000082E00E949C0062
S11302D088E20E949C008CE00E949C0081E00E94C5
S11302E09C008FEC97E00197F1F700C0000086E0D6
S11302F00C949C00811102C080E803C0813021F479
S113030080EC860F0C949C0008950F931F93CF9359
S11303108C01C0E0F801EC0FF11D8081882321F0ED
S11303200E94FC00CF5FF6CFCF911F910F910895EB
S11303304F925F926F927F92AF92BF92CF92DF9271
S1130340EF92FF921F93CF93DF93CDB7DEB76497FD
S11303500FB6F894DEBF0FBECDBF6B017C016115F3
S113036071058105910529F480E30E94FC0010E0E9
S11303702BC097FF0BC08DE20E94FC00F094E09428
S1130380D094C094C11CD11CE11CF11C10E09AE073
S1130390492E512C612C712CAA24A394B12CAC0E9F
S11303A0BD1EA10EB11CC701B601A30192010E949A
S11303B04B06605DF50160831F5F69017A01C1141A
S11303C0D104E104F10441F7115017FD0CC0E1E040
S11303D0F0E0EC0FFD1FE10FF11D17FDFA95808190
S11303E00E94FC00F1CF64960FB6F894DEBF0FBEF6
S11303F0CDBFDF91CF911F91FF90EF90DF90CF9011
S1130400BF90AF907F906F905F904F900895089544
S1130410CF93DF93C82FD0E0CC0FDD1FC059DF4F3F
S113042060E088810E948F0360E08981DF91CF9131
S11304300C948F03CF93DF93C82FD0E0CC0FDD1F34
S1130440C059DF4F61E088810E948F0360E0898199
S1130450DF91CF910C948F030E942B040E9407021A
S11304600E945C010E94490066E081E00E946B03E7
S1130470D0E0C0E000E010E08AE0E82E81E00E94D5
S11304808003853640F029E52F1598F58AE5F812A2
S113049075C0D1112BC065E080E00E947A0189E922
S11304A090E00E94850160E081E00E947A018EE97B
S11304B090E00E94850162E081E00E947A0181E07F
S11304C00E948003682F70E080E090E00E94980111
S11304D081EE90E00E94850161E080E10E948F033B
S11304E060E082E10E948F03D0E0AEC0D13009F019
S11304F045C065E080E00E947A0181EA90E00E94B4
S1130500850160E081E00E947A018EE990E00E941A
S1130510850162E081E00E947A0181E00E9480030B
S1130520682F70E080E090E00E94980181EE90E0F6
S11305300E94850161E082E10E948F0360E080E116
S11305400E948F0369E081E00E947A0186EA90E0CC
S11305500E9485016BE081E00E947A0182E00E94A2
S11305608003F82E682F70E080E090E00E949801EC
S113057081EE90E00E948501D1E066C080E00E9497
S11305801A0261E081E10E948F0360E080E10E9431
S11305908F0360E082E10E948F0365E080E00E94A7
S11305A07A0189EA90E00E94850160E081E00E947E
S11305B07A018EE990E00E94850162E081E00E9468
S11305C07A0181E00E948003682F70E080E090E06F
S11305D00E94980181EE90E00E94850169E081E02B
S11305E00E947A0186EA90E00E9485016BE081E036
S11305F00E947A0182E00E948003F82E682F70E046
S113060080E090E00E94980181EE90E00E948501D4
S11306109FEF23ED80E3915020408040E1F700C03C
S1130620000060E080E00E947A018EEA90E00E947F
S113063085019FEF29E688E1915020408040E1F751
S113064000C00000D2E004C0C13011F0C0E016CFF9
S11306500E9454008435B9F090ED980F9A30A8F4B4
S1130660E09E9001E19E300D11248901005311098F
S1130670080F111D60E080E00E947A01B80180E05B
S113068090E00E949801C1E0F9CE8D33E1F78091AA
S1130690780090E00817190721F0C1E000E010E0AD
S11306A0EDCE80E00E94080260E081E10E948F03A9
S11306B060E080E00E947A0186EC90E00E9485016F
S11306C09FEF2DE389E4915020408040E1F700C082
S11306D00000C0E0E3CF813041F028F0823039F4EB
S11306E03E9A3F9A04C03E9801C03E9A3F9886B114
S11306F0887F86B986B16770682B66B9379A089582
S113070097B1907E97B997B1892B87B9369A369964
S1130710FECF3D9884B125B190E0922B0895982F97
S113072096959695969587706130C1F5913091F0C4
S113073028F09230D9F0933029F108954BB321E099
S113074030E0B90102C0660F771F8A95E2F7CB014A
S1130750842B38C048B321E030E0B90102C0660FF1
S1130760771F8A95E2F7CB01842B3AC045B321E089
S113077030E0B90102C0660F771F8A95E2F7CB011A
S1130780842B3CC042B321E030E0B90102C0660FC3
S1130790771F8A95E2F7CB01842B3EC09130A1F0FC
S11307A028F09230F9F0933059F108954BB321E0D9
S11307B030E0B90102C0660F771F8A95E2F7CB01DA
S11307C0809584238BBB089548B321E030E0B901C0
S11307D002C0660F771F8A95E2F7CB0180958423C8
S11307E088BB089545B321E030E0B90102C0660F2B
S11307F0771F8A95E2F7CB018095842385BB089502
S113080042B321E030E0B90102C0660F771F8A9538
S1130810E2F7CB018095842382BB0895282F2770AB
S1130820869586958695813049F030F0823041F086
S1130830833079F480B305C089B303C086B301C0A3
S113084083B390E002C0959587952A95E2F781706D
S1130850089580E00895E9E7F0E040E081E090E069
S11308605191342F369536953695242F2770513073
S113087009F443C020F0523009F482C0C5C03230BC
S113088001F1333061F1313071F05AB3BC0102C06F
S1130890660F771F2A95E2F79B01352F322B3ABB5F
S11308A03BB320953DC057B3BC0102C0660F771F10
S11308B02A95E2F79B01352F322B37BB38B32095AD
S11308C03EC054B3BC0102C0660F771F2A95E2F7FD
S11308D09B01352F322B34BB35B320953FC051B328
S11308E0BC0102C0660F771F2A95E2F79B01352FE2
S11308F0322B31BB32B3209541C0323011F1333049
S113090081F1313079F05AB3BC0102C0660F771F10
S11309102A95E2F79B012095352F32233ABB3BB34E
S1130920232342C057B3BC0102C0660F771F2A9528
S1130930E2F79B012095352F322337BB38B32323AD
S113094043C054B3BC0102C0660F771F2A95E2F777
S11309509B012095352F322334BB35B3232325BB8C
S113096053C051B3BC0102C0660F771F2A95E2F74A
S11309709B012095352F322331BB32B3232343C04F
S1130980323021F1333089F1313081F05AB3BC0176
S113099002C0660F771F2A95E2F79B01362F309528
S11309A035233ABB3BB3232B2BBB2EC057B3BC011F
S11309B002C0660F771F2A95E2F79B01362F309508
S11309C0352337BB38B3232B28BB1EC054B3BC011B
S11309D002C0660F771F2A95E2F79B01362F3095E8
S11309E0352334BB35B3232BBACF51B3BC0102C07A
S11309F0660F771F2A95E2F79B01362F3095352332
S1130A0031BB32B3232B22BB4F5F403209F028CFD6
S1130A1008951F920F920FB60F9211242F933F93B4
S1130A204F935F936F937F938F939F93AF93BF93F2
S1130A30EF93FF93E091E800F091E900309709F01B
S1130A400995FF91EF91BF91AF919F918F917F9104
S1130A506F915F914F913F912F910F900FBE0F9027
S1130A601F90189578941F920F920FB60F9211242D
S1130A702F933F934F935F936F937F938F939F93A2
S1130A80AF93BF93EF93FF93E091E600F091E700FB
S1130A90309709F00995FF91EF91BF91AF919F9124
S1130AA08F917F916F915F914F913F912F910F9013
S1130AB00FBE0F901F9018951F920F920FB60F92B2
S1130AC011242F933F934F935F936F937F938F934F
S1130AD09F93AF93BF93EF93FF93E091E400F09162
S1130AE0E500309709F00995FF91EF91BF91AF911F
S1130AF09F918F917F916F915F914F913F912F9132
S1130B000F900FBE0F901F9018951F920F920FB663
S1130B100F9211242F933F934F935F936F937F937F
S1130B208F939F93AF93BF93EF93FF93E091F00064
S1130B30F091F100309709F00995FF91EF91BF9181
S1130B40AF919F918F917F916F915F914F913F9161
S1130B502F910F900FBE0F901F9018951F920F9218
S1130B600FB60F9211242F933F934F935F936F937C
S1130B707F938F939F93AF93BF93EF93FF93E091F2
S1130B80EE00F091EF00309709F00995FF91EF9195
S1130B90BF91AF919F918F917F916F915F914F9191
S1130BA03F912F910F900FBE0F901F9018951F9299
S1130BB00F920FB60F9211242F933F934F935F938D
S1130BC06F937F938F939F93AF93BF93EF93FF9311
S1130BD0E091EC00F091ED00309709F00995FF9158
S1130BE0EF91BF91AF919F918F917F916F915F91A1
S1130BF04F913F912F910F900FBE0F901F9018951A
S1130C001F920F920FB60F9211242F933F934F937D
S1130C105F936F937F938F939F93AF93BF93EF9360
S1130C20FF93E091EA00F091EB00309709F0099509
S1130C30FF91EF91BF91AF919F918F917F916F91B0
S1130C405F914F913F912F910F900FBE0F901F9086
S1130C501895A1E21A2EAA1BBB1BFD010DC0AA1FE9
S1130C60BB1FEE1FFF1FA217B307E407F50720F011
S1130C70A21BB30BE40BF50B661F771F881F991F8C
S1130C801A9469F760957095809590959B01AC01D5
S1130C90BD01CF010895052E97FB1EF400940E9418
S1130CA0620657FD07D00E94290607FC03D04EF4C4
S1130CB00C94620650954095309521953F4F4F4FC7
S1130CC05F4F089590958095709561957F4F8F4FF4
S10B0CD09F4F0895F894FFCF33
S1130CD83738392F3435362A3132332D43303D2BCA
S1130CE808091A1B1C1D1E1F7B01010101000000BD
S1130CF800000000000000000000000000000000E8
S1130D0800000002020202000046494E4500483A2B
S1130D18004845415400533A004649524500656E1F
S1130D287465722070617373776F726420746F20B6
S1130D3873746F7020002020202020202020202081
S1130D482020202020202020202020202020202097
S1070D582020200033
S9030000FC
