:100000000C942A000C9434000C9434000C943400AA
:100010000C9434000C9434000C9434000C94340090
:100020000C9434000C9434000C9434000C94340080
:100030000C9434000C9434000C9434000C94340070
:100040000C9434000C9434000C9434000C94340060
:100050000C94340011241FBECFE5D8E0DEBFCDBF25
:100060000E9436000C9463000C9400008FE081BB6A
:1000700082B3816082BB82B38D7F82BB82B3846096
:1000800082BB82B3877F82BB2FEF87EA91E6215044
:1000900080409040E1F700C0000082B3826082BBE4
:1000A00082B38E7F82BB82B3886082BB82B38B7F38
:1000B00082BB2FEF87EA91E6215080409040E1F724
:0A00C00000C00000D5CFF894FFCF78
:00000001FF
